:020000040800F2
:10000000A0040020211700080116000803160008AC
:100010000516000807160008091600080000000071
:100020000000000000000000000000000B160008A7
:100030000D160008000000000F1600081116000839
:1000400045170008491700084D1700085117000808
:1000500055170008591700085D17000861170008B8
:1000600065170008691700086D1700087117000868
:1000700075170008791700087D1700088117000818
:1000800085170008891700088D17000891170008C8
:1000900095170008991700089D170008A117000878
:1000A000A5170008A9170008AD170008B117000828
:1000B000B51700081F160008B9170008BD1700087B
:1000C000C1170008C5170008C9170008CD17000898
:1000D000D117000825160008D5170008D917000801
:1000E000DD170008E1170008E51700082DE9F843BF
:1000F0000646DFF89C543078C1074AD5686800F09E
:100100000C00042807D0686800F00C0008280BD108
:100110006868C10308D5296888033AD57068002843
:1001200040F0C080012069E17068B0F5803F0FD0D9
:1001300038B9296821F480312960286820F48020AA
:1001400009E0B0F5A02F296807D141F4802129608A
:10015000286840F48030286006E021F4803129606E
:100160002A6822F480222A60706868B100F030FAB0
:1001700004462968880300F1958000F029FA001BE5
:100180006528F6D3032039E100F022FA04462868F6
:10019000810340F1878000F01BFA001B6528F6D32D
:1001A000F0E700F015FA001B022840F2AA80E9E708
:1001B000306970B10121396000F00AFA04462868FC
:1001C000810700F1DC8000F003FA001B0228F6D959
:1001D000D8E7386000F0FCF904462868810765D547
:1001E00000F0F6F9001B0228F7D9CBE7086000F011
:1001F000EFF90446686A810777D500F0E9F9001B3A
:100200000228F7D9BEE708B9286A09E00528286A54
:1002100006D140F004002862286A40F0010005E0A1
:10022000400840002862286A20F00400286241F259
:100230008938F06868B100F0CBF98146286A8107F7
:1002400000F1AA8000F0C4F9A0EB09004045F5D305
:1002500098E700F0BDF98146286A810740F19C804B
:1002600000F0B6F9A0EB09004045F5D38AE700F0AD
:10027000AFF9001B022840F2A28083E700F0A8F942
:10028000001B022840F2B5807CE700F0B9F8044674
:100290002868810140F1B18000F09AF9001B022822
:1002A000F6D96FE73078DFF8F47281071BD56868FC
:1002B00010F00C0F09D0686800F00C0008287FF4DB
:1002C00077AF6868C1033FF573AF2968880703D526
:1002D000306901287FF426AF2968706921F0F801A0
:1002E00041EAC0012960317808071DD5B069DFF8FF
:1002F000B01200283FF47AAF01220A6000F068F9DA
:100300000446686A81077FF54CAFDFF888120868F9
:10031000C0084FF47A72B0FBF2F2009200BF00986E
:10032000411E00280091F9D13078410739D5E8699C
:100330000024C10009D4E86940F08050E86101243C
:10034000E86900F0805000900098DFF85882D8F8F3
:100350000010C8051BD4D8F8000040F48070C8F81D
:10036000000000F035F98146D8F80010C8050ED419
:1003700000F02EF9A0EB09006528F5D302E7286804
:10038000716920F0F80040EAC1002860ABE7F0682E
:1003900001287FF438AF3FE71CB1E86920F08050B6
:1003A000E861F06948B3696801F00C0108293FF47D
:1003B000B9AE02287FF469AF00F022F8044628683D
:1003C00081013FF554AF306AB0F5803F05D16968CF
:1003D000B06821F40031014369606968306A21F432
:1003E00074110143706A01436960012000F009F84B
:1003F0000446286881017FF541AF0020BDE8F28303
:100400000020386600F0E4B82DE9F843664F054651
:100410003868894600F00700484502D200F07AF8B3
:100420006CD129785A4C880705D56168A86821F0F5
:10043000F001014361602878C10757D56868012839
:1004400002D121688A0303E0022803D121688A01CE
:1004500003D453E02268910750D56168890840EAC7
:100460008100606041F2893800F0B2F806466868A1
:1004700001280BD1606800F00C00042836D000F091
:10048000A7F8801B4045F5D303202DE0022837D183
:10049000606800F00C00082828D000F099F8801B54
:1004A0004045F5D3F0E72878410705D56168E8684D
:1004B00021F4E061014361602878010706D5606896
:1004C000296920F4605040EAC100606000F02CF817
:1004D00062683649C2F30312895C2E4AC840106034
:1004E000002000F07BF80020BDE8F283386800F0BF
:1004F00007008145D7D200F00DF8D4D00120F3E7F2
:10050000606810F00C0FF1D000F062F8801B4045DD
:10051000F6D3B9E73968C90849EAC10139603868D2
:1005200000F007004845704721491B480A6802F05F
:100530000C03082B00D0704710B50FF28004C2F3F3
:100540008343D203E35C09D509680FF28002C1F34B
:1005500040415843515CB0FBF1F010BD18461549BD
:10056000484310BD0B48006870470A48104A0068AD
:1005700013681149C3F3022206E006480C4A0068DA
:1005800013680D49C3F3C222895CC840704700005C
:10059000001002401800002000127A0000004242C1
:1005A000800442420070004000200240B015000864
:1005B0000410024000093D003C1700080203040536
:1005C000060708090A0B0C0D0E0F1010010200009F
:1005D00001484068704700BF0C00002038B50D4D41
:1005E0000D4A297804464FF47A70B0FBF1F1106897
:1005F000B0FBF1F000F055F850B9102C08D20022F1
:1006000021464FF0FF3000F025F8AC60002032BDED
:10061000012032BD0C00002018000020090102005A
:1006200081B006D52F4A00F00F00104400F8041CDA
:1006300001E02D4B195401B070472C4A13684FF656
:10064000FF0100020B4000F4E06018432849084312
:100650001060704738B5254B1C68C4F30223C3F102
:100660000704052C28BF04241D1D072D34BF0023BB
:10067000DB1E012505FA04F4641E2140994005FAA9
:1006800003F35B1E1A401143BDE83440C6E7012264
:1006900000F01F01174BFFE78A40400943F8202074
:1006A000704710B5401EB0F1807F01D3012010BD0E
:1006B000114C60600F214FF0FF30FFF7AFFF0022B9
:1006C000A26007202060002010BD04280A4904D140
:1006D000086840F00400086070470A6822F00402CD
:1006E0000A60704718ED00E000E400E00CED00E067
:1006F0000000FA0500E100E010E000E000F000B8C2
:100700007047000038B5040001D1012032BD00F06F
:1007100022F808B900F023F800F013F800F024F8EC
:10072000FFE7416100F001F832BD2068C16841F483
:100730000051C1600020686020206870A87000200F
:100740007047242068702068C16821F40051C1609E
:10075000204600F022B904F138056878704700217E
:100760002970204600F0A9B92068016921F4904160
:1007700001612068416921F02A017047416921F037
:1007800040014161606B704738B5044625682968AF
:10079000EA686B6911F00F0007D188065DD59006F5
:1007A0005BD52046BDE83240ACE0D80702D412F455
:1007B000907F52D0C80705D5D00503D5E06B40F037
:1007C0000100E063480705D5D80703D5E06B40F08A
:1007D0000200E063880705D5D80703D5E06B40F039
:1007E0000400E063080705D5D80703D5E06B40F0A7
:1007F0000800E063E06B00286ED0890604D59006FF
:1008000044BF204600F07EF820684069E16B0A078B
:1008100001D440061BD5204600F05FF820684169EE
:100820004A060FD5FFF7AAFF60B10FF2CD01416371
:10083000606B00F093F900284ED0606B416BBDE80F
:10084000344008472046BDE8324000F0E3B9204676
:1008500000F0E0F90020E06331BD08062CD5100659
:100860002AD594F83900212836D1A168206AB1F53B
:10087000805F0DD10188C1F308016960206918B952
:10088000216A881C206207E0206A411C216203E083
:10089000411C216200786860E08C401EE08480B2D8
:1008A000D0B92068C16821F08001C1602068C168AA
:1008B00041F04001C16031BD48060DD550060BD551
:1008C000E86820F04000E860202184F839102046D4
:1008D000BDE8324000F09FB931BD0168CA6822F41A
:1008E0009072CA6001684A69520852004A61202128
:1008F00080F83A1070470000406A0021C185C18429
:1009000000F088B980B590F83A10222943D1826866
:10091000B2F5805F14D1826A016941B903685968F0
:10092000C1F308011180826A911C816218E001689C
:100930004B6803F0FF031380816A4A1C82620FE058
:1009400001690029816A04D14A1C826202685368E5
:1009500005E04A1C82620268536803F07F030B7053
:10096000C18D491EC18589B299B90168CA6822F052
:100970002002CA600168CA6822F48072CA600168F5
:100980004A69520852004A61202180F83A1000F06A
:1009900043F9002002BD022002BD2DE9F0470446C4
:1009A000642521680A69E06822F4405202430A6122
:1009B0001926CA6831480240A068024320690243F0
:1009C00060690243CA604A69A06922F44072024326
:1009D0002B484A6181420ED1FFF7CFFD0746FFF752
:1009E000CCFD8046FFF7C9FD8146FFF7C6FD824674
:1009F000FFF7C3FD0DE0FFF7B8FD0746FFF7B5FDB4
:100A00008046FFF7B2FD8146FFF7AFFD8246FFF754
:100A1000ACFD06FB09F9616889007743B7FBF1F289
:100A200006FB08F7B7FBF1F3B9FBF1F7B7FBF5F7F6
:100A300005FB17331B013233B3FBF5F3B2FBF5F2C1
:100A400003F0F00303EB021306FB0AF74643B7FB80
:100A5000F1F2B6FBF1F06421B0FBF1F005FB1025DB
:100A60002D0132356420B5FBF0F0216800F00F0055
:100A7000C3188B60BDE8F08700000000F3E9FFFFBA
:100A80000038014080B52148214901604FF4E1312F
:100A9000416000218160C16001610C214161002140
:100AA0008161C161FFF72EFE30B1BDE804404221F3
:100AB0000FF2680000F017B901BD006814498842C0
:100AC00000D0704718B51348134C85B0016841F445
:100AD000804101604FF40071006800F48040009094
:100AE00002220098019103200490029201A920465D
:100AF00000F0FAF84FF48060002101900291039118
:100B0000204601A900F0F0F806B010BD5C000020FE
:100B1000003801401810024000080140433A5C557B
:100B2000736572735C5A67656E795C4465736B7448
:100B30006F705C30303153544D33325F575332381D
:100B40003132425C5753323831324276312E305C8A
:100B50005372635C75736172742E630038B590F8DC
:100B600021200024022A00F1340103D0042048602F
:100B700001243EE00268136823F00E03136002684C
:100B8000DFF8743015686D086D00156002689A42D0
:100B900008BF012222D0DFF864309A4208BF102239
:100BA0001CD0DFF85C309A4208BF4FF4807215D039
:100BB000DFF850309A4208BF4FF480520ED0DFF871
:100BC00048309A4208BF4FF4803207D0DFF83C30FB
:100BD0009A420CBF4FF480124FF08072DFF8303031
:100BE0001A60012280F8212080F82040096801B1B4
:100BF0008847204632BD0000080002401C00024029
:100C00003000024044000240580002406C000240A4
:100C100004000240704770477047000010B500F0B4
:100C200045F900F027F800F053F9FFF72BFF00F02B
:100C300093F9002200212520FFF70CFD2520FFF766
:100C400026FD002200211D20FFF704FD1D20FFF7D7
:100C50001EFD074C0921204600F004FA0921204618
:100C600000F02BFA4FF4FA7000F05AFAF2E70000A5
:100C70000000002000B500218FB0012007910590F1
:100C800002210C914FF48030069001220D904FF418
:100C9000E01109920E9105A8FFF728FA00B1FEE7CE
:100CA0000F2102200091019000214FF480600291F9
:100CB0000390049168460221FFF7A6FB00B1FEE70E
:100CC000FFF750FC4FF47A71B0FBF1F0FFF7E9FC4D
:100CD0000420FFF7FAFC002200214FF0FF30FFF75D
:100CE000B9FC0FB000BDFEE72DE9F84F83460F4673
:100CF000002080466049614A614B4FF00F094FF078
:100D0000010A3C680AFA08F606EA040EB64540F005
:100D1000A4807C683CB3012C1AD0022C1DD0032C7B
:100D20002ED0112C16D0122C1AD0564DAC421CBF0E
:100D3000554DAC4217D0554DAC421CBF544DAC4242
:100D400011D0544DAC421CBF534DAC420BD018E0F7
:100D5000F86816E0F868001D13E0F868083010E045
:100D6000F8680C300DE0B86808B9042009E00128E3
:100D700019BF0820CBF814600820CBF8106000E001
:100D80000020BEF5807F03D2DC464FEA880404E0F1
:100D9000A8F108040BF1040CA400DCF8005009FAD7
:100DA00004F6B54300FA04F42C43CCF800407C6808
:100DB000E40052D51C6844F001041C604FEA980C12
:100DC0001D6805F001050095009C52F82C604FEA63
:100DD000880404F00C0409FA04F526EA05052F4EF0
:100DE000B34508BF00260ED02D4EB34508BF0126DF
:100DF00009D02C4EB34508BF022604D02A4EB34575
:100E00000CBF0326042606FA04F42C4342F82C40B7
:100E10006FEA0E067C68E50304D50D684EEA050509
:100E20000D6002E00C6834400C607C68A5034C68DF
:100E30004CBF4EEA040434404C607C68E5028C6888
:100E40004CBF4EEA040434408C607C68A502CC6838
:100E50004CBF4EEA04043440CC6008F10108B8F1FC
:100E60000F0F7FF64EAFBDE8F18F81B002B90904D4
:100E7000016101B07047000000040140080001401A
:100E80001810024000001110000012100000211084
:100E90000000221000003110000032100008014054
:100EA000000C0140001001400014014080B50748CB
:100EB000016841F0100101600320FFF7BEFB002034
:100EC000FFF78CFB00F040F9002002BD002002403B
:100ED00018B51D481D4C85B0016841F02001016026
:100EE000026802F0200200920099016841F00401BA
:100EF0000160026802F00402009200220099016879
:100F000041F0080101604FF4C041006800F00800A2
:100F1000009000982046FFF7A8FF202001900020B5
:100F20000B490291039001A90A48FFF7DDFE4FF437
:100F3000C0400190012103200291049001A92046A4
:100F4000FFF7D2FE06B010BD18100240000C0140A1
:100F50000000111000080140214838B5214C0FF263
:100F60008C05206086B0472060600020A06040F2C1
:100F7000E730E06000202061A061204600F028F901
:100F800018B13F212846FFF7AEFE4FF48050029083
:100F900002A9204600F0DFF918B145212846FFF7E5
:100FA000A2FE0020009001906946204600F0AEFAB3
:100FB00018B14C212846FFF796FE07B030BD81B02E
:100FC00000680749884209D10748016841F00201D9
:100FD0000160006800F002000090009801B07047C6
:100FE000000400401C0000201C100240433A5C55E5
:100FF000736572735C5A67656E795C4465736B7474
:101000006F705C30303153544D33325F5753323848
:101010003132425C5753323831324276312E305CB5
:101020005372635C74696D2E63000000032000BF7F
:10103000401E0028FBD100BF00BF00BF00BF7047AB
:10104000042000BF401E0028FBD100BF00BF00BF2E
:1010500000BF704700BF00BF00BF00BF00BF7047A8
:1010600000BF70472DE9F84300F052F820E0FFF789
:10107000F1FF316821F480413160FFF7D7FF12E0C2
:1010800014F80090002529FA05F00128306840F492
:1010900080403060EBD1FFF7D3FF316821F480410D
:1010A0003160FFF7DDFF6D1CE8B20828EBDB7F1C29
:1010B000B8B24045E4D3BDE8F1832DE9F84300F030
:1010C00027F820E0FFF7C6FF316821F400513160B6
:1010D000FFF7ACFF12E014F80090002529FA05F0A4
:1010E0000128306840F400503060EBD1FFF7A8FFD2
:1010F000316821F400513160FFF7B2FF6D1CE8B296
:101100000828EBDB7F1CB8B24045E4D3BDE8F1838F
:10111000044688460027014E704700000C0C014031
:1011200038B50446FFF754FA14F1010F054602D012
:10113000044908780419FFF74BFA401BA042FAD380
:1011400031BD00BF0C00002080B51F48016841F090
:1011500001010160006800F0010000900098032088
:10116000FFF76BFA002200216FF00B00FFF772FA15
:10117000002200216FF00A00FFF76CFA0022002124
:101180006FF00900FFF766FA002200216FF00400FB
:10119000FFF760FA002200216FF00300FFF75AFA10
:1011A000002200216FF00100FFF754FA0022002115
:1011B0004FF0FF30FFF74EFA0448016821F0E0617C
:1011C00041F00071016001BD1810024004000140AF
:1011D00038B5040001D1012032BD00F014F818B96F
:1011E00000F00DF8FFF7EBFEFFE702206870211D0D
:1011F000206800F01BF901206870002032BD00213A
:1012000029702046704704F13C056878704710B596
:101210000446206801698A0715D5C1688A0712D576
:101220006FF00202026101212177806910F0030F43
:10123000204602D000F08FF903E000F08DF900F0B5
:1012400087F800202077206801694A0715D5C16812
:101250004A0712D56FF004020261022121778069EA
:1012600010F4407F204602D000F075F903E000F052
:1012700073F900F06DF800202077206801690A07F3
:1012800015D5C1680A0712D56FF008020261042162
:101290002177C06910F0030F204602D000F05BF9FF
:1012A00003E000F059F900F053F80020207720689F
:1012B0000169CA0615D5C168CA0612D56FF01002B9
:1012C000026108212177C06910F4407F204602D0D6
:1012D00000F041F903E000F03FF900F039F8002098
:1012E000207720680169CA0708D5C168CA0705D5F3
:1012F0006FF001020261204600F02FF920680169B9
:101300000A0608D5C1680A0605D56FF08002026199
:10131000204600F023F9206801694A0608D5C16813
:101320004A0605D56FF040020261204600F017F929
:10133000206801698A060AD5C1688A0607D56FF058
:10134000200202612046BDE8104000F009B910BD3E
:10135000204600F006B938B500F05DF801D1022052
:1013600032BD01222270022060702A68DFF81C0161
:101370009368034093600868002837D0102837D05E
:10138000202837D0302837D040282BD050281ED0E6
:10139000602820D070280BD0B0F5805F03D0B0F566
:1013A000005F0CD02CE028688168C908C9000CE0F7
:1013B00000F028F82868816841F0770105E000F026
:1013C00021F82868816841F48041816018E000F0CC
:1013D0001EF8502111E0CA684968286800F06FF8CB
:1013E00060210AE000F013F8402106E0002104E04B
:1013F000102102E0202100E03021286800F071F87F
:101400000FE00000CB684A688968286871E0CA6804
:101410004968286844E0054605F13C042078012825
:101420007047012060700020207032BD70B5184EEA
:101430000368184C184DB04218BFB0F1804F03D06C
:10144000A84218BFA04209D14A6823F07003134391
:10145000B0421CBFB0F1804FA84201D0A04203D1DE
:10146000CA6823F4407313434A6923F0800313438B
:101470000360B0428A68C2620A68826202D1096966
:10148000064A11600122426170BD00008800FFFF22
:10149000002C01400008004000040040302C0140B6
:1014A00010B5036A046A64086400046223F00A0346
:1014B000846924F0F00444EA0214846123E010B546
:1014C000036A23F0100303628369046A23F4704300
:1014D00043EA023324F0A004836144EA0114046265
:1014E00010BD826822F07002114341F00701816053
:1014F000704710B5846824F47F442143114341EAC6
:101500000321816010BD1943016210BD30B500F1A7
:101510003C031A78012A01D1022030BD01241C703D
:1015200002225A700268546824F0700454600468FF
:1015300065680A68154365600268946824F0800451
:10154000946002689468486804439460012058706D
:101550000020187030BD7047704770477047704763
:10156000704770470E49086840F0010008604A68FB
:101570000C4802404A600B680B4803400B60086847
:1015800020F4802008604FF41F004A6822F4FE0215
:101590004A6088604FF000600449086070470000AE
:1015A000001002400000FFF8FFFFF6FE08ED00E02B
:1015B0000000000000000000010203040607080903
:1015C00019E050F8042BD30744BFA9F101039A187E
:1015D000091F0023042942F8043BF9D25FEA817C09
:1015E000134604D54FF0000CA2F800C09B1CC9079D
:1015F00044BF0021197050F8041B0029E1D1704745
:101600007047FEE7FEE7FEE7FEE77047704770476A
:1016100080B500F00FF8BDE80140FFF76FB8034850
:10162000FFF7F5BD0248FFF7AFB800001C0000202F
:101630005C00002002494A68087882184A607047B6
:101640000C00002010B450F8041B79B10268436804
:1016500002440830DC0744BFA9F10104E31852F842
:10166000044B43F8044B091FF9D1ECE710BC704759
:1016700010B5074979441831064C7C44163404E00F
:101680000A68081D114488470146A142F8D110BDDF
:10169000080000002800000029FFFFFF8000000074
:1016A0001C000020000000009DFFFFFF1C00000048
:1016B00054000000000000200000000000F00DF8C1
:1016C000002801D0FFF7D4FFAFF300800020AFF374
:1016D0000080FFF7A3FA00F002F80120704700F045
:1016E00001B800000746384600F002F8FBE70000AA
:1016F00080B5AFF30080024A11001820ABBEFBE7B3
:1017000026000200FF000000FF000000FF000000B4
:1017100001000000000000001000000000A24A04C8
:101720000148804701480047651500083117000847
:10173000AFF30080AFF30080FFF7C0FF00000000B0
:1017400001020304FFF7FEBFFFF7FEBFFFF7FEBF76
:10175000FFF7FEBFFFF7FEBFFFF7FEBFFFF7FEBFBD
:10176000FFF7FEBFFFF7FEBFFFF7FEBFFFF7FEBFAD
:10177000FFF7FEBFFFF7FEBFFFF7FEBFFFF7FEBF9D
:10178000FFF7FEBFFFF7FEBFFFF7FEBFFFF7FEBF8D
:10179000FFF7FEBFFFF7FEBFFFF7FEBFFFF7FEBF7D
:1017A000FFF7FEBFFFF7FEBFFFF7FEBFFFF7FEBF6D
:1017B000FFF7FEBFFFF7FEBFFFF7FEBFFFF7FEBF5D
:1017C000FFF7FEBFFFF7FEBFFFF7FEBFFFF7FEBF4D
:1017D000FFF7FEBFFFF7FEBFFFF7FEBFFFF7FEBF3D
:0817E000FFF7FEBFFFF7FEBF9B
:0400000508001731A7
:00000001FF
